:020000040800F2
:10000000080402200D0200080F0B0008610A000816
:100010000D0B0008550200088D0B000800000000C1
:10002000000000000000000000000000330B00088A
:100030005702000800000000310B0008350B0008D3
:1000400027020008270200082702000827020008EC
:1000500027020008270200082702000827020008DC
:1000600027020008270200082702000827020008CC
:1000700027020008270200082702000827020008BC
:1000800027020008270200082702000827020008AC
:10009000270200082702000827020008270200089C
:1000A000270200082702000827020008270200088C
:1000B000270200082702000827020008270200087C
:1000C000270200082702000827020008270200086C
:1000D000270200082702000827020008270200085C
:1000E000270200082702000827020008270200084C
:1000F000270200082702000827020008270200083C
:10010000270200082702000827020008270200082B
:10011000270200082702000827020008270200081B
:10012000270200082702000827020008270200080B
:1001300027020008270200082702000827020008FB
:1001400027020008270200082702000827020008EB
:1001500027020008270200082702000827020008DB
:1001600027020008270200082702000827020008CB
:1001700027020008270200082702000800000000EC
:1001800027020008270200082702000827020008AB
:10019000270200082702000827020008270200089B
:1001A000270200082702000827020008270200088B
:1001B000270200082702000827020008270200087B
:1001C000270200082702000800000000270200089C
:1001D000270200082702000827020008270200085B
:1001E000270200082702000827020008270200084B
:1001F0002702000827020008DFF80CD000F018F8EA
:1002000000480047AD0B000808040220064880475C
:1002100006480047FEE7FEE7FEE7FEE7FEE7FEE7EB
:10022000FEE7FEE7FEE7FEE7390B0008F9010008EC
:10023000064C074D06E0E06840F0010394E8070033
:1002400098471034AC42F6D3FFF7DAFF240D0008CC
:10025000440D0008FEE7704731B500F0FDF8044694
:1002600000F0FAF80099001B8842F9D338BD00006D
:100270002DE9F84FDFF8A09100224FF00F0809F1A7
:10028000040A0AF1040B0BF1040E0B6801269640D8
:100290003340B34271D14C68022C01D0122C11D1E1
:1002A000D40800EB84073D6A5407E40E08FA04FC06
:1002B00025EA0C05D1F810C00CFA04FC4CEA050C38
:1002C000C7F820C00768540091F804C00325A54072
:1002D0000CF0030CAF430CFA04FC4CEA070CC0F81A
:1002E00000C04F68012F05D0022F03D0112F01D07D
:1002F000122F11D18768D1F80CC0AF430CFA04FC5F
:100300004CEA070CC0F808C04768B7430E79C6F33B
:10031000001696403E434660C668AE438D68A540D1
:100320003543C5604C68E4006FD53C4C256845F406
:1003300080452560246822F0030504F4804400947D
:10034000374C2E19D6F808789407250F08FA05F4CB
:10035000A743344CA04201D100242EE0324CA042ED
:1003600001D1012429E0314CA04201D1022424E032
:100370002F4CA04202D103241FE046E02D4CA042A6
:1003800001D1042419E02C4CA04201D1052414E031
:100390002A4CA04201D106240FE0294CA04201D1F1
:1003A00007240AE0274CA04201D1082405E0264C8E
:1003B000A04201D1092400E00A24AC403C43C6F825
:1003C0000848D9F800404D464E689C43F60300D5D6
:1003D0001C432C60DAF8004055464E689C43B60337
:1003E00000D51C432C60DBF800405D464E689C4302
:1003F000F60200D51C432C60DEF8004075464E68BE
:100400009C43B60200D51C432C60521C102AFFF4FA
:100410003CAFBDE8F88F0000003C0140443802408A
:100420000030014000000240000402400008024089
:10043000000C02400010024000140240001802406C
:10044000001C024000200240002402400AB18161E9
:1004500070470904FBE7000001480068704700008E
:100460000400022002480168491C01607047000036
:100470000400022010B5044607484FF47A71006862
:10048000B0FBF1F000F0D8FA00222146501E00F037
:1004900005F8002010BD0000000002200E4BF0B453
:1004A0001B68C3F30223C3F10704042C00D90424FE
:1004B0001D1D072D01D2002300E0DB1E012606FAD8
:1004C00004F56D1E0D409D409E40761E164045EA87
:1004D0000601F0BC00F01CBB0CED00E01848F8B5BC
:1004E000016841F0805101600068164D00F08050B5
:1004F0000090286840F480302860FFF7ADFF4FF48B
:100500007A76044604E0FFF7A7FF001BB0420FD83D
:100510006868C003F7D5286840F400302860FFF70A
:100520009BFF044606E0FFF797FF001BB04201D98E
:100530000320F8BD68688003F5D50020F8BD0000F1
:1005400040380240007000402DE9F047DFF8448158
:1005500004460E46D8F8000000F00F00B0420CD25E
:10056000D8F8001021F00F013143C8F80010D8F876
:10057000000000F00F00B04262D12078464F8007A3
:1005800005D53868A16820F0F0000843386020786D
:10059000C00744D0404960680839012816D009686E
:1005A000022816D0890700294ADA396821F00301A8
:1005B00001433960FFF750FF0546606841F288311A
:1005C00001280ED00228894617D024E00968890343
:1005D000E9E78901E7E7FFF73FFF411B494501D9FB
:1005E00016E089463868C0F381000128F3D116E08F
:1005F000FFF732FF411B49450AD83868C0F3810034
:100600000228F5D10BE0FFF727FF411B494502D92E
:100610000320BDE8F087386810F00C0FF3D1D8F84C
:100620000010404601F00F01B1420BD9016821F0E2
:100630000F0131430160006800F00F00B04201D0AB
:100640000120E6E72078400705D53868E16820F406
:10065000E050084338602078000706D538682169E3
:1006600020F4604040EAC100386000F01BF83968AF
:10067000F02292FAA2F201F0F001B2FA82F2D14035
:10068000064A515CC840064908600F20FFF7F2FE99
:100690000020BEE7003C024008380240140D00086C
:1006A00000000220194830B5006810F00C0118480D
:1006B00012D0184C04290ED008290DD1134A121F4C
:1006C0001168136801F03F015D0247F6C07304D55D
:1006D000B4FBF1F003E0204630BDB0FBF1F011684F
:1006E000194093FAA3F3B3FA83F3D940484311684E
:1006F0004FF4403292FAA2F201F44031B2FA82F29F
:10070000D140491C4900B0FBF1F030BD083802402F
:100710000024F40040787D012DE9F84FDFF81083C4
:1007200004460078A8F10409A9F10405C0074AD0DD
:10073000D8F800104046C1F38101012908D00068B3
:10074000C0F3810002280AD1D9F80000400206D582
:100750002868800337D5606800286ED033E0606871
:10076000B0F5803F0BD010B1B0F5A02F11D02868A4
:1007700020F480302860286820F4802002E0286877
:1007800040F480302860606888B1FFF765FE064657
:1007900009E0286840F480202860F0E7FFF75CFE5D
:1007A000801B642872D828688003F7D50BE0FFF718
:1007B00053FE064604E0FFF74FFE801B6428F1D885
:1007C00028688003F7D42078800746D5D8F8001031
:1007D00040464FF0F80711F00C0F08D00068C0F346
:1007E000810002280AD1D9F80000400206D4286806
:1007F000800716D5E06801281FD112E0E0680028C4
:1008000028681BD040F001002860FFF725FE06464F
:1008100004E0FFF721FE801B0228C3D82868800768
:10082000F7D5286897FAA7F22169B2FA82F220F088
:10083000F8009140084328600FE0F7E020F0010045
:100840002860FFF709FE064604E0FFF705FE801B5F
:1008500002281BD828688007F7D42078000725D500
:10086000734F60696C370028386810D040F0010081
:100870003860FFF7F1FD064604E0FFF7EDFD801B51
:10088000022803D838688007F7D50FE08AE020F007
:1008900001003860FFF7E0FD064604E0FFF7DCFDED
:1008A000801B02287ED838688007F7D4207840075C
:1008B00050D55F483830016841F0805101600068D0
:1008C0005C4F00F080500090386840F480703860D1
:1008D000FFF7C2FD064604E0FFF7BEFD801B64285B
:1008E00060D83868C005F7D5514FA068683701282F
:1008F0000AD008B1052813D0386820F0010038600C
:10090000386820F0040002E0386840F001003860E8
:10091000A06841F2883A88B1FFF79EFD064609E0DB
:10092000386840F004003860EEE7FFF795FD811B62
:10093000514573D838688007F7D50BE0FFF78CFD79
:10094000064604E0FFF788FD811B514566D83868EC
:100950008007F7D4A06930B3D8F80010C1F3810143
:10096000022963D00228286820F08070286003D014
:10097000FFF772FD044654E0FFF76EFD064604E003
:10098000FFF76AFD801B022848D828688001F7D449
:1009900047F6C072D4E9070192FAA2F20843B2FA0C
:1009A00082F201E03AE03FE0616A4FF0FF339140AC
:1009B000A26A03EB52024FF4403393FAA3F3B3FA63
:1009C00083F39A4011434FF070620843E16A92FA50
:1009D000A2F2B2FA82F291404FF0E0420843216B5A
:1009E00092FAA2F2B2FA82F291400843C9F80000EA
:1009F000286840F080702860FFF72EFD044604E070
:100A0000FFF72AFD001B022808D828688001F7D5C7
:100A10000AE0FFF721FD001B022802D90320BDE8F0
:100A2000F88F28688001F4D40020F8E70120F6E769
:100A30000838024000700040401EB0F1807F10B5C1
:100A400001D3012010BD4FF0E02460610F21601739
:100A500000F05EF80020A06107202061002010BD9A
:100A6000FEE700002648F0B5016887B041F080013C
:100A70000160016801F080010591016841F0800189
:100A80000160016801F080010591016841F0800179
:100A90000160016801F080010591016841F00801E1
:100AA000016000684FF48065164F694600F0080049
:100AB000059001200290CDE90050032003903846B4
:100AC000FFF7D6FB6C00694638460094FFF7D0FB71
:100AD0006600694638460096FFF7CAFB0A4F69462A
:100AE00000943846FFF7C4FB0648183005600460E0
:100AF0000660002221463846FFF7A8FC07B0F0BD8B
:100B000030380240001C0240000C0240FEE77047F3
:100B10000907090E002806DA00F00F0000F1E020B6
:100B200080F8141D704700F1E02080F80014704731
:100B300070477047FFF796BC1048016841F4700198
:100B400001600F48016841F0010101600C4A002179
:100B50000832116002680B4B1A400260031D0A4AFA
:100B60001A60026822F48022026005480C3001609D
:100B700058060249803908607047000088ED00E09F
:100B800000380240FFFFF6FE10300024FEE702E0CE
:100B900008C8121F08C1002AFAD170477047002008
:100BA00001E001C1121F002AFBD1704792B0012061
:100BB00002240090000401908001CDE90640192034
:100BC00008904FF4D870CDE9090409200B906846CD
:100BD000FFF7A2FD00B1FEE7FFF780FC00B1FEE7E2
:100BE0000F20CDE90D044FF4805500200F904FF4F5
:100BF000A050CDE9100507210DA8FFF7A5FC00B115
:100C0000FEE7FFF72FFF4FF480664FF47A7B770003
:100C10004FF080684FF0006A4FF080593B4C002243
:100C200031462046FFF712FC5846FFF715FB01221C
:100C300031462046FFF70AFC5846FFF70DFB00221D
:100C400039462046FFF702FC5846FFF705FB012214
:100C500039462046FFF7FAFB002229462046FFF7D7
:100C6000F5FB5846FFF7F8FA012229462046FFF720
:100C7000EDFB274C002239462046FFF7E7FB58469C
:100C8000FFF7EAFA012239462046FFF7DFFB1F4C47
:100C90001834C4F80080276025605846FFF7DCFA56
:100CA0002660C4F800A025605846FFF7D5FA2660F4
:100CB0002760C4F800905846FFF7CEFAC4F80080C9
:100CC000C4F800A025605846FFF7C6FAC4F80080B3
:100CD0002760C4F800905846FFF7BEFA2660C4F8B3
:100CE00000A0C4F800905846FFF7B6FAC4F8008098
:100CF000C4F800A0C4F800905846FFF7ADFA26608B
:100D0000276025605846FFF7A7FA87E7001C0240D6
:100D1000000C02400000000000000000010203047B
:100D200006070809440D0008000002200800000022
:100D30008E0B00084C0D0008080002200004000083
:0C0D40009E0B00080024F40000000000DE
:04000005080001F9F5
:00000001FF
